{
  "contractName": "BettingGame",
  "abi": [
    {
      "inputs": [],
      "stateMutability": "nonpayable",
      "type": "constructor"
    },
    {
      "anonymous": false,
      "inputs": [
        {
          "indexed": true,
          "internalType": "address",
          "name": "sender",
          "type": "address"
        },
        {
          "indexed": false,
          "internalType": "uint256",
          "name": "amount",
          "type": "uint256"
        }
      ],
      "name": "Received",
      "type": "event"
    },
    {
      "anonymous": false,
      "inputs": [
        {
          "indexed": false,
          "internalType": "uint256",
          "name": "id",
          "type": "uint256"
        },
        {
          "indexed": false,
          "internalType": "uint256",
          "name": "bet",
          "type": "uint256"
        },
        {
          "indexed": false,
          "internalType": "uint256",
          "name": "randomSeed",
          "type": "uint256"
        },
        {
          "indexed": false,
          "internalType": "uint256",
          "name": "amount",
          "type": "uint256"
        },
        {
          "indexed": false,
          "internalType": "address",
          "name": "player",
          "type": "address"
        },
        {
          "indexed": false,
          "internalType": "uint256",
          "name": "winAmount",
          "type": "uint256"
        },
        {
          "indexed": false,
          "internalType": "uint256",
          "name": "randomResult",
          "type": "uint256"
        },
        {
          "indexed": false,
          "internalType": "uint256",
          "name": "time",
          "type": "uint256"
        }
      ],
      "name": "Result",
      "type": "event"
    },
    {
      "anonymous": false,
      "inputs": [
        {
          "indexed": false,
          "internalType": "address",
          "name": "admin",
          "type": "address"
        },
        {
          "indexed": false,
          "internalType": "uint256",
          "name": "amount",
          "type": "uint256"
        }
      ],
      "name": "Withdraw",
      "type": "event"
    },
    {
      "inputs": [],
      "name": "admin",
      "outputs": [
        {
          "internalType": "address payable",
          "name": "",
          "type": "address"
        }
      ],
      "stateMutability": "view",
      "type": "function"
    },
    {
      "inputs": [],
      "name": "gameId",
      "outputs": [
        {
          "internalType": "uint256",
          "name": "",
          "type": "uint256"
        }
      ],
      "stateMutability": "view",
      "type": "function"
    },
    {
      "inputs": [
        {
          "internalType": "uint256",
          "name": "",
          "type": "uint256"
        }
      ],
      "name": "games",
      "outputs": [
        {
          "internalType": "uint256",
          "name": "id",
          "type": "uint256"
        },
        {
          "internalType": "uint256",
          "name": "bet",
          "type": "uint256"
        },
        {
          "internalType": "uint256",
          "name": "seed",
          "type": "uint256"
        },
        {
          "internalType": "uint256",
          "name": "amount",
          "type": "uint256"
        },
        {
          "internalType": "address payable",
          "name": "player",
          "type": "address"
        }
      ],
      "stateMutability": "view",
      "type": "function"
    },
    {
      "inputs": [],
      "name": "lastGameId",
      "outputs": [
        {
          "internalType": "uint256",
          "name": "",
          "type": "uint256"
        }
      ],
      "stateMutability": "view",
      "type": "function"
    },
    {
      "inputs": [],
      "name": "randomResult",
      "outputs": [
        {
          "internalType": "uint256",
          "name": "",
          "type": "uint256"
        }
      ],
      "stateMutability": "view",
      "type": "function"
    },
    {
      "inputs": [
        {
          "internalType": "bytes32",
          "name": "requestId",
          "type": "bytes32"
        },
        {
          "internalType": "uint256",
          "name": "randomness",
          "type": "uint256"
        }
      ],
      "name": "rawFulfillRandomness",
      "outputs": [],
      "stateMutability": "nonpayable",
      "type": "function"
    },
    {
      "stateMutability": "payable",
      "type": "receive"
    },
    {
      "inputs": [],
      "name": "ethInUsd",
      "outputs": [
        {
          "internalType": "int256",
          "name": "",
          "type": "int256"
        }
      ],
      "stateMutability": "view",
      "type": "function"
    },
    {
      "inputs": [],
      "name": "weiInUsd",
      "outputs": [
        {
          "internalType": "uint256",
          "name": "",
          "type": "uint256"
        }
      ],
      "stateMutability": "view",
      "type": "function"
    },
    {
      "inputs": [
        {
          "internalType": "uint256",
          "name": "bet",
          "type": "uint256"
        },
        {
          "internalType": "uint256",
          "name": "seed",
          "type": "uint256"
        }
      ],
      "name": "game",
      "outputs": [
        {
          "internalType": "bool",
          "name": "",
          "type": "bool"
        }
      ],
      "stateMutability": "payable",
      "type": "function"
    },
    {
      "inputs": [
        {
          "internalType": "uint256",
          "name": "random",
          "type": "uint256"
        }
      ],
      "name": "verdict",
      "outputs": [],
      "stateMutability": "payable",
      "type": "function"
    },
    {
      "inputs": [
        {
          "internalType": "uint256",
          "name": "amount",
          "type": "uint256"
        }
      ],
      "name": "withdrawLink",
      "outputs": [],
      "stateMutability": "nonpayable",
      "type": "function"
    },
    {
      "inputs": [
        {
          "internalType": "uint256",
          "name": "amount",
          "type": "uint256"
        }
      ],
      "name": "withdrawEther",
      "outputs": [],
      "stateMutability": "payable",
      "type": "function"
    }
  ],
  "bytecode": "0x60c060405234801561001057600080fd5b5073b3dccb4cf7a26f6cf6b120cf5a73875b7bbc655b7301be23585060835e02b77ef475b0cc51aa1e07098173ffffffffffffffffffffffffffffffffffffffff1660a08173ffffffffffffffffffffffffffffffffffffffff1660601b815250508073ffffffffffffffffffffffffffffffffffffffff1660808173ffffffffffffffffffffffffffffffffffffffff1660601b81525050505067016345785d8a000060028190555033600660006101000a81548173ffffffffffffffffffffffffffffffffffffffff021916908373ffffffffffffffffffffffffffffffffffffffff160217905550738a753747a1fa494ec906ce90e9f37563a8af630e600160006101000a81548173ffffffffffffffffffffffffffffffffffffffff021916908373ffffffffffffffffffffffffffffffffffffffff16021790555060805160601c60a05160601c61157861018860003980610b0e52806111e3525080610760528061102a52806111a752506115786000f3fe6080604052600436106100ab5760003560e01c806383f818b41161006457806383f818b41461028657806394985ddd146102d6578063a9d1e30a1461031b578063d3dc1fdf14610346578063d7c81b5514610374578063f851a4401461039f57610100565b8063117a5b9014610105578063238618e71461019c5780633bed33ce146101c75780633ee9d648146101f557806342619f66146102205780637a8042bd1461024b57610100565b36610100573373ffffffffffffffffffffffffffffffffffffffff167f88a5966d370b9919b20f3e2c13ff65706f196a4e32cc2c12bf57088f88525874346040518082815260200191505060405180910390a2005b600080fd5b34801561011157600080fd5b5061013e6004803603602081101561012857600080fd5b81019080803590602001909291905050506103f6565b604051808681526020018581526020018481526020018381526020018273ffffffffffffffffffffffffffffffffffffffff1673ffffffffffffffffffffffffffffffffffffffff1681526020019550505050505060405180910390f35b3480156101a857600080fd5b506101b161044c565b6040518082815260200191505060405180910390f35b6101f3600480360360208110156101dd57600080fd5b810190808035906020019092919050505061047a565b005b34801561020157600080fd5b5061020a61068f565b6040518082815260200191505060405180910390f35b34801561022c57600080fd5b50610235610695565b6040518082815260200191505060405180910390f35b34801561025757600080fd5b506102846004803603602081101561026e57600080fd5b810190808035906020019092919050505061069b565b005b6102bc6004803603604081101561029c57600080fd5b8101908080359060200190929190803590602001909291905050506108b5565b604051808215151515815260200191505060405180910390f35b3480156102e257600080fd5b50610319600480360360408110156102f957600080fd5b810190808035906020019092919080359060200190929190505050610b0c565b005b34801561032757600080fd5b50610330610bdb565b6040518082815260200191505060405180910390f35b6103726004803603602081101561035c57600080fd5b8101908080359060200190929190505050610cb6565b005b34801561038057600080fd5b50610389610ff7565b6040518082815260200191505060405180910390f35b3480156103ab57600080fd5b506103b4610ffd565b604051808273ffffffffffffffffffffffffffffffffffffffff1673ffffffffffffffffffffffffffffffffffffffff16815260200191505060405180910390f35b60076020528060005260406000206000915090508060000154908060010154908060020154908060030154908060040160009054906101000a900473ffffffffffffffffffffffffffffffffffffffff16905085565b600080610457610bdb565b90506000816a52b7d2dcc80cd2e40000008161046f57fe5b059050809250505090565b600660009054906101000a900473ffffffffffffffffffffffffffffffffffffffff1673ffffffffffffffffffffffffffffffffffffffff163373ffffffffffffffffffffffffffffffffffffffff161461053d576040517f08c379a00000000000000000000000000000000000000000000000000000000081526004018080602001828103825260178152602001807f63616c6c6572206973206e6f74207468652061646d696e00000000000000000081525060200191505060405180910390fd5b80471015610596576040517f08c379a00000000000000000000000000000000000000000000000000000000081526004018080602001828103825260278152602001806114ea6027913960400191505060405180910390fd5b600660009054906101000a900473ffffffffffffffffffffffffffffffffffffffff1673ffffffffffffffffffffffffffffffffffffffff166108fc829081150290604051600060405180830381858888f193505050501580156105fe573d6000803e3d6000fd5b507f884edad9ce6fa2440d8a54cc123490eb96d2768479d49ff9c7366125a9424364600660009054906101000a900473ffffffffffffffffffffffffffffffffffffffff1682604051808373ffffffffffffffffffffffffffffffffffffffff1673ffffffffffffffffffffffffffffffffffffffff1681526020018281526020019250505060405180910390a150565b60055481565b60035481565b600660009054906101000a900473ffffffffffffffffffffffffffffffffffffffff1673ffffffffffffffffffffffffffffffffffffffff163373ffffffffffffffffffffffffffffffffffffffff161461075e576040517f08c379a00000000000000000000000000000000000000000000000000000000081526004018080602001828103825260178152602001807f63616c6c6572206973206e6f74207468652061646d696e00000000000000000081525060200191505060405180910390fd5b7f000000000000000000000000000000000000000000000000000000000000000073ffffffffffffffffffffffffffffffffffffffff1663a9059cbb33836040518363ffffffff1660e01b8152600401808373ffffffffffffffffffffffffffffffffffffffff1673ffffffffffffffffffffffffffffffffffffffff16815260200182815260200192505050602060405180830381600087803b15801561080557600080fd5b505af1158015610819573d6000803e3d6000fd5b505050506040513d602081101561082f57600080fd5b81019080805190602001909291905050506108b2576040517f08c379a00000000000000000000000000000000000000000000000000000000081526004018080602001828103825260198152602001807f4572726f722c20756e61626c6520746f207472616e736665720000000000000081525060200191505060405180910390fd5b50565b6000806108c061044c565b905080341015610938576040517f08c379a000000000000000000000000000000000000000000000000000000000815260040180806020018281038252601e8152602001807f4572726f722c206d73672e76616c7565206d757374206265203e3d202431000081525060200191505060405180910390fd5b60018411156109af576040517f08c379a000000000000000000000000000000000000000000000000000000000815260040180806020018281038252601a8152602001807f4572726f722c20616363657074206f6e6c79203020616e64203100000000000081525060200191505060405180910390fd5b34471015610a25576040517f08c379a00000000000000000000000000000000000000000000000000000000081526004018080602001828103825260208152602001807f4572726f722c20696e737566666963656e74207661756c742062616c616e636581525060200191505060405180910390fd5b6040518060a0016040528060045481526020018581526020018481526020013481526020013373ffffffffffffffffffffffffffffffffffffffff168152506007600060045481526020019081526020016000206000820151816000015560208201518160010155604082015181600201556060820151816003015560808201518160040160006101000a81548173ffffffffffffffffffffffffffffffffffffffff021916908373ffffffffffffffffffffffffffffffffffffffff160217905550905050600160045401600481905550610b0083611023565b50600191505092915050565b7f000000000000000000000000000000000000000000000000000000000000000073ffffffffffffffffffffffffffffffffffffffff163373ffffffffffffffffffffffffffffffffffffffff1614610bcd576040517f08c379a000000000000000000000000000000000000000000000000000000000815260040180806020018281038252601f8152602001807f4f6e6c7920565246436f6f7264696e61746f722063616e2066756c66696c6c0081525060200191505060405180910390fd5b610bd7828261118d565b5050565b600080600160009054906101000a900473ffffffffffffffffffffffffffffffffffffffff1673ffffffffffffffffffffffffffffffffffffffff1663feaf968c6040518163ffffffff1660e01b815260040160a06040518083038186803b158015610c4657600080fd5b505afa158015610c5a573d6000803e3d6000fd5b505050506040513d60a0811015610c7057600080fd5b8101908080519060200190929190805190602001909291908051906020019092919080519060200190929190805190602001909291905050505050509150508091505090565b73b3dccb4cf7a26f6cf6b120cf5a73875b7bbc655b73ffffffffffffffffffffffffffffffffffffffff163373ffffffffffffffffffffffffffffffffffffffff1614610d6b576040517f08c379a00000000000000000000000000000000000000000000000000000000081526004018080602001828103825260208152602001807f6f6e6c7920564652432063616e2063616c6c20746869732066756e6374696f6e81525060200191505060405180910390fd5b600060055490505b600454811015610fea5760008090507f80000000000000000000000000000000000000000000000000000000000000008310158015610dc8575060016007600084815260200190815260200160002060010154145b80610e1457507f800000000000000000000000000000000000000000000000000000000000000083108015610e13575060006007600084815260200190815260200160002060010154145b5b15610eb357600260076000848152602001908152602001600020600301540290506007600083815260200190815260200160002060040160009054906101000a900473ffffffffffffffffffffffffffffffffffffffff1673ffffffffffffffffffffffffffffffffffffffff166108fc829081150290604051600060405180830381858888f19350505050158015610eb1573d6000803e3d6000fd5b505b7f42454dd863e57d7fc7c2c8c6a3d1385748e0c2c5224b37d27cad5fb088ddf47b60076000848152602001908152602001600020600001546007600085815260200190815260200160002060010154600760008681526020019081526020016000206002015460076000878152602001908152602001600020600301546007600088815260200190815260200160002060040160009054906101000a900473ffffffffffffffffffffffffffffffffffffffff16868942604051808981526020018881526020018781526020018681526020018573ffffffffffffffffffffffffffffffffffffffff1673ffffffffffffffffffffffffffffffffffffffff1681526020018481526020018381526020018281526020019850505050505050505060405180910390a1508080600101915050610d73565b5060045460058190555050565b60045481565b600660009054906101000a900473ffffffffffffffffffffffffffffffffffffffff1681565b60006002547f000000000000000000000000000000000000000000000000000000000000000073ffffffffffffffffffffffffffffffffffffffff166370a08231306040518263ffffffff1660e01b8152600401808273ffffffffffffffffffffffffffffffffffffffff1673ffffffffffffffffffffffffffffffffffffffff16815260200191505060206040518083038186803b1580156110c557600080fd5b505afa1580156110d9573d6000803e3d6000fd5b505050506040513d60208110156110ef57600080fd5b810190808051906020019092919050505011611156576040517f08c379a00000000000000000000000000000000000000000000000000000000081526004018080602001828103825260328152602001806115116032913960400191505060405180910390fd5b6111867f2ed0feb3e7fd2022120aa84fab1945545a9f2ffc9076fd6156fa96eaff4c131160001b600254846111a3565b9050919050565b8060038190555061119f600354610cb6565b5050565b60007f000000000000000000000000000000000000000000000000000000000000000073ffffffffffffffffffffffffffffffffffffffff16634000aea07f000000000000000000000000000000000000000000000000000000000000000085878660405160200180838152602001828152602001925050506040516020818303038152906040526040518463ffffffff1660e01b8152600401808473ffffffffffffffffffffffffffffffffffffffff1673ffffffffffffffffffffffffffffffffffffffff16815260200183815260200180602001828103825283818151815260200191508051906020019080838360005b838110156112b2578082015181840152602081019050611297565b50505050905090810190601f1680156112df5780820380516001836020036101000a031916815260200191505b50945050505050602060405180830381600087803b15801561130057600080fd5b505af1158015611314573d6000803e3d6000fd5b505050506040513d602081101561132a57600080fd5b810190808051906020019092919050505050600061135c8584306000808a8152602001908152602001600020546113ae565b905061138460016000808881526020019081526020016000205461142890919063ffffffff16565b600080878152602001908152602001600020819055506113a485826114b0565b9150509392505050565b600084848484604051602001808581526020018481526020018373ffffffffffffffffffffffffffffffffffffffff1673ffffffffffffffffffffffffffffffffffffffff1681526020018281526020019450505050506040516020818303038152906040528051906020012060001c9050949350505050565b6000808284019050838110156114a6576040517f08c379a000000000000000000000000000000000000000000000000000000000815260040180806020018281038252601b8152602001807f536166654d6174683a206164646974696f6e206f766572666c6f77000000000081525060200191505060405180910390fd5b8091505092915050565b6000828260405160200180838152602001828152602001925050506040516020818303038152906040528051906020012090509291505056fe4572726f722c20636f6e74726163742068617320696e737566666963656e742062616c616e63654572726f722c206e6f7420656e6f756768204c494e4b202d2066696c6c20636f6e7472616374207769746820666175636574a2646970667358221220b2600c68e755da068695b9c06e97f1a49a24a222ca691791a6ac9411d0df88fa64736f6c63430006060033",
  "immutableReferences": {
    "517": [
      {
        "length": 32,
        "start": 1888
      },
      {
        "length": 32,
        "start": 4138
      },
      {
        "length": 32,
        "start": 4519
      }
    ],
    "519": [
      {
        "length": 32,
        "start": 2830
      },
      {
        "length": 32,
        "start": 4579
      }
    ]
  },
  "source": "/** Contract created based on: https://docs.chain.link/docs/get-a-random-number\r\n *  Contract created only for educational purposes\r\n *  You will need testnet ETH and LINK.\r\n *     - Rinkeby ETH faucet: https://faucet.rinkeby.io/\r\n *     - Rinkeby LINK faucet: https://rinkeby.chain.link/\r\n */\r\n\r\n/** !UPDATE\r\n * min. bet >= $1 in Ethereum\r\n * ETH/USD price will be received from Chainlink Oracles prices feed aggregator.\r\n * more: https://docs.chain.link/docs/using-chainlink-reference-contracts.\r\n */\r\npragma solidity 0.6.6;\r\n\r\n//import smart contract for random number generation\r\nimport \"@chainlink/contracts/src/v0.6/VRFConsumerBase.sol\";\r\n/* !UPDATE, import aggregator contract */\r\nimport \"@chainlink/contracts/src/v0.6/interfaces/AggregatorV3Interface.sol\"; \r\n\r\n//inherit from the random number smart contract\r\ncontract BettingGame is VRFConsumerBase {\r\n    \r\n  /**!UPDATE\r\n   * \r\n   *assign an aggregator contract to the variable.\r\n   */\r\n  AggregatorV3Interface internal priceFeed; \r\n    \r\n  uint256 internal fee;\r\n  uint256 public randomResult;\r\n\r\n  //Network: Rinkeby Link Information\r\n  //https://docs.chain.link/docs/vrf-contracts#config\r\n  address constant VFRC_address = 0xb3dCcb4Cf7a26f6cf6B120Cf5A73875B7BBc655B; // VRF Coordinator\r\n  address constant LINK_address = 0x01BE23585060835E02B77ef475b0Cc51aA1e0709; // LINK token\r\n  //keyHash(network specific) - helps identify which chainlink oracle we will use to get a random number\r\n  bytes32 constant internal keyHash = 0x2ed0feb3e7fd2022120aa84fab1945545a9f2ffc9076fd6156fa96eaff4c1311;\r\n  \r\n  //declaring 50% chance, (0.5*(uint256+1))\r\n  uint256 constant half = 57896044618658097711785492504343953926634992332820282019728792003956564819968;\r\n  \r\n  //counter of the number of games played\r\n  uint256 public gameId;\r\n  //reference the last game that was decided on (may be different than gameId as bets are being processed)\r\n  uint256 public lastGameId;\r\n  //we use payable because we are using the admin.transfer() function\r\n  address payable public admin;\r\n\r\n  mapping(uint256 => Game) public games;\r\n\r\n  struct Game{\r\n    uint256 id;\r\n    uint256 bet;\r\n    uint256 seed;\r\n    uint256 amount;\r\n    address payable player;\r\n  }\r\n\r\n  modifier onlyAdmin() {\r\n    require(msg.sender == admin, 'caller is not the admin');\r\n    _;\r\n  }\r\n\r\n  modifier onlyVFRC() {\r\n    require(msg.sender == VFRC_address, 'only VFRC can call this function');\r\n    _;\r\n  }\r\n  \r\n  event Withdraw(address admin, uint256 amount);\r\n  event Received(address indexed sender, uint256 amount);\r\n  event Result(uint256 id, uint256 bet, uint256 randomSeed, uint256 amount, address player, uint256 winAmount, uint256 randomResult, uint256 time);\r\n  \r\n  /**\r\n   *Constructor inherits VRFConsumerBase. Addresses are listed above\r\n   */\r\n  constructor() VRFConsumerBase(VFRC_address, LINK_address) public {\r\n    fee = 0.1 * 10 ** 18; // 0.1 LINK\r\n    admin = msg.sender;\r\n  \r\n    /** !UPDATE\r\n     * \r\n     * assign ETH/USD Rinkeby contract address to the aggregator variable.\r\n     * more: https://docs.chain.link/docs/ethereum-addresses\r\n     */\r\n   \r\n    priceFeed = AggregatorV3Interface(0x8A753747A1Fa494EC906cE90E9f37563A8AF630e);\r\n  }\r\n  \r\n  /* Allows this contract to receive payments */\r\n  receive() external payable {\r\n    emit Received(msg.sender, msg.value);\r\n  }\r\n  \r\n\r\n  /**!UPDATE\r\n   * LINK TEMPLATE FUNCTION to get price data\r\n   *Returns latest ETH/USD price from Chainlink oracles.\r\n   .lateestRoundData() comes from the AggregatorV3Interface.sol import \r\n   */\r\n  function ethInUsd() public view returns (int) {\r\n    (/*uint80 roundID88*/, int price, /*uint startedAt*/, /*uint timeStamp*/, /*uint80 answeredInRound*/) = priceFeed.latestRoundData();\r\n    \r\n    return price;\r\n  }\r\n\r\n  /**!UPDATE\r\n   * \r\n   *ethUsd - latest price from Chainlink oracles (ETH in USD * 10**8).\r\n   *weiUsd - USD in Wei, received by dividing:\r\n   *          ETH in Wei (converted to compatibility with etUsd (10**18 * 10**8)),\r\n   *          by ethUsd.\r\n   */\r\n  function weiInUsd() public view returns (uint) {\r\n    int _ethUsd = ethInUsd();\r\n    int weiUsd = 10**26/_ethUsd;\r\n    \r\n    return uint(weiUsd);\r\n  }\r\n  \r\n  /**\r\n   *Taking bets function.\r\n   *By winning, user 2x his betAmount.\r\n   *Chances to win and lose are the same.\r\n   */\r\n  function game(uint256 bet, uint256 seed) public payable returns (bool) {\r\n\r\n    /** !UPDATE\r\n     * \r\n     * Checking if msg.value is higher or equal than $1.\r\n    */\r\n    uint weiUsd = weiInUsd();\r\n    require(msg.value>=weiUsd, 'Error, msg.value must be >= $1');\r\n      \r\n    //bet=0 is low, refers to 1-3  dice values\r\n    //bet=1 is high, refers to 4-6 dice values\r\n    require(bet<=1, 'Error, accept only 0 and 1');\r\n\r\n    //vault balance must be at least equal to msg.value\r\n    require(address(this).balance>=msg.value, 'Error, insufficent vault balance');\r\n    \r\n    //each bet has unique id and is mapped to the games mapping using the Game struct\r\n    games[gameId] = Game(gameId, bet, seed, msg.value, msg.sender);\r\n    \r\n    //increase gameId for the next bet\r\n    gameId = gameId+1;\r\n\r\n    //seed is auto-generated by DApp\r\n    getRandomNumber(seed);\r\n    //When an internal function is used (getRandomNumber), we need to return a bool\r\n    return true;\r\n  }\r\n  //===================================================================================================================\r\n  //===================================================================================================================\r\n  //CALL:\r\n  /** \r\n   *LINK TEMPLATE FUNCTION\r\n   *Request for randomness.\r\n   *we set this to internal (it is public in the template) which only allows this contract to call it.\r\n   *used by game()\r\n   */\r\n  function getRandomNumber(uint256 userProvidedSeed) internal returns (bytes32 requestId) {\r\n    require(LINK.balanceOf(address(this)) > fee, \"Error, not enough LINK - fill contract with faucet\");\r\n    return requestRandomness(keyHash, fee, userProvidedSeed);\r\n  }\r\n  //===================================================================================================================\r\n  //RECEIVE:\r\n  /**\r\n   *LINK TEMPLATE FUNCTION\r\n   *Callback function used by VRF Coordinator.\r\n   */\r\n  function fulfillRandomness(bytes32 /*requestId*/, uint256 randomness) internal override {\r\n    randomResult = randomness;\r\n    //randomness.mod(2) //should return a value of of 0 or 1\r\n    //send final random value to the verdict();\r\n    verdict(randomResult);\r\n  }\r\n  //===================================================================================================================\r\n  //===================================================================================================================\r\n  /**\r\n   *Send rewards to the winners.\r\n   */\r\n   //onlyVRF can call the fulfillrandomness function (which uses verdict function)\r\n  function verdict(uint256 random) public payable onlyVFRC {\r\n    //check bets from latest betting round, one by one\r\n    //the for loop allows for orderly processing of bets\r\n    //ie. possible to make multiple bets before randomResults comeback and verdict is decided\r\n    //this happens when multiple people are using the app at the same time\r\n    for(uint256 i=lastGameId; i<gameId; i++){\r\n\r\n      //reset winAmount for current user\r\n      uint256 winAmount = 0;\r\n      \r\n      //if user wins, then receives 2x of their betting amount\r\n      if((random>=half && games[i].bet==1) || (random<half && games[i].bet==0)){\r\n        winAmount = games[i].amount*2;\r\n        games[i].player.transfer(winAmount);\r\n      }\r\n      \r\n      emit Result(games[i].id, games[i].bet, games[i].seed, games[i].amount, games[i].player, winAmount, random, block.timestamp);\r\n    }\r\n    //save current gameId to lastGameId for the next betting round\r\n    lastGameId = gameId;\r\n  }\r\n  \r\n  /**\r\n   *LINK TEMPLATE FUNCTION\r\n   *Withdraw LINK from this contract (admin option).\r\n   */\r\n  function withdrawLink(uint256 amount) external onlyAdmin {\r\n    require(LINK.transfer(msg.sender, amount), \"Error, unable to transfer\");\r\n  }\r\n  \r\n  /**\r\n   * Withdraw Ether from this contract (admin option).\r\n   */\r\n  function withdrawEther(uint256 amount) external payable onlyAdmin {\r\n    require(address(this).balance>=amount, 'Error, contract has insufficent balance');\r\n    admin.transfer(amount);\r\n    \r\n    emit Withdraw(admin, amount);\r\n  }\r\n}",
  "sourcePath": "C:/Users/Guceri/Projects/LinkBet/src/contracts/BettingGame.sol",
  "compiler": {
    "name": "solc",
    "version": "0.6.6+commit.6c089d02.Emscripten.clang"
  },
  "schemaVersion": "3.4.1",
  "updatedAt": "2021-05-20T12:13:40.979Z",
  "devdoc": {
    "methods": {}
  },
  "userdoc": {
    "methods": {
      "constructor": "onstructor inherits VRFConsumerBase. Addresses are listed above",
      "ethInUsd()": {
        "notice": "!UPDATE LINK TEMPLATE FUNCTION to get price data eturns latest ETH/USD price from Chainlink oracles. .lateestRoundData() comes from the AggregatorV3Interface.sol import "
      },
      "game(uint256,uint256)": {
        "notice": "aking bets function. y winning, user 2x his betAmount. hances to win and lose are the same."
      },
      "verdict(uint256)": {
        "notice": "end rewards to the winners."
      },
      "weiInUsd()": {
        "notice": "!UPDATE \r thUsd - latest price from Chainlink oracles (ETH in USD * 10**8). eiUsd - USD in Wei, received by dividing:         ETH in Wei (converted to compatibility with etUsd (10**18 * 10**8)),         by ethUsd."
      },
      "withdrawEther(uint256)": {
        "notice": "Withdraw Ether from this contract (admin option)."
      },
      "withdrawLink(uint256)": {
        "notice": "INK TEMPLATE FUNCTION ithdraw LINK from this contract (admin option)."
      }
    }
  }
}